:020000040800F2
:10000000000008247D240008251A00082D1A000885
:10001000351A00083D1A0008451A000800000000C3
:10002000000000000000000000000000213B040868
:100030004D1A000800000000713D04082533040833
:10004000CD240008CD240008CD240008CD240008CC
:10005000CD240008CD240008CD240008CD240008BC
:10006000CD240008CD240008CD240008CD240008AC
:10007000CD240008CD240008CD240008CD2400089C
:10008000CD240008CD240008CD240008CD2400088C
:10009000CD240008CD240008CD240008CD2400087C
:1000A000CD240008CD240008CD240008CD2400086C
:1000B000CD240008CD240008CD240008CD2400085C
:1000C000CD240008CD240008CD240008CD2400084C
:1000D000CD240008CD240008CD240008CD2400083C
:1000E0005B1A0008CD24000800000000CD240008A1
:1000F000CD240008CD240008CD240008CD2400081C
:10010000CD24000849240008CD240008CD2400088F
:10011000CD240008CD2400086D1A0008CD24000865
:10012000CD240008CD240008CD240008CD240008EB
:10013000CD240008CD240008CD240008CD240008DB
:10014000CD240008CD2400080000000000000000BD
:10015000CD240008CD240008CD240008CD240008BB
:10016000CD240008CD240008CD240008CD240008AB
:10017000CD240008CD240008CD2400080000000094
:10018000CD240008CD240008CD240008CD2400088B
:10019000CD240008CD240008CD240008CD2400087B
:1001A000CD240008CD240008CD240008CD2400086B
:1001B000CD240008811A0008CD240008CD240008B1
:1001C000CD240008CD240008CD240008CD2400084B
:1001D000CD240008CD240008CD240008CD2400083B
:1001E000CD240008CD240008CD240008CD2400082B
:1001F000CD240008CD240008CD240008CD2400081B
:10020000CD240008CD240008CD240008CD2400080A
:10021000CD240008CD240008CD240008CD240008FA
:10022000CD240008CD240008CD24000800000000E3
:10023000CD240008CD240008CD240008CD240008DA
:10024000CD240008CD240008CD240008CD240008CA
:10025000CD240008CD240008CD240008CD240008BA
:10026000CD240008CD240008CD240008CD240008AA
:10027000CD240008CD240008CD240008CD2400089A
:10028000CD240008CD240008CD2400080000000083
:08029000CD240008CD24000874
:1002A00010B5054C237833B9044B13B10448AFF3B0
:1002B00000800123237010BDA00300240000000073
:1002C000F89B040808B5034B1BB103490348AFF37F
:1002D000008008BD00000000A4030024F89B04086F
:1002E00010F8012B11F8013B012A28BF9A42F7D0E0
:1002F000D01A70470000000000000000000000005D
:1003000001F0FF01102A2BDB10F0070F08D010F8C6
:10031000013B013A8B422DD010F0070F42B3F6D1CA
:10032000F0B441EA012141EA014122F007047FF0E3
:1003300000070023F0E80256083C85EA010586EA3A
:10034000010685FA47F5A3FA87F586FA47F6A5FA76
:1003500087F68EB9EED1F0BC01F0FF0102F0070282
:1003600032B110F8013B013A83EA010313B1F8D12D
:100370000020704701387047002D06BF354603380E
:10038000073815F0010F07D1013015F4807F02BF47
:10039000013015F4C03F0130F0BC0138704700BF98
:1003A000034613F8012B002AFBD1181A01387047B5
:1003B00053B94AB9002908BF00281CBF4FF0FF31CC
:1003C0004FF0FF3000F06AB9ADF1080C6DE904CED2
:1003D00000F006F8DDF804E0DDE9022304B0704720
:1003E0002DE9F047089D0C46002B4ED194468C45D4
:1003F0008646B2FA82F262D94AB1C2F12003914034
:1004000020FA03F30CFA02FC194300FA02FE4FEA49
:100410001C471FFA8CF6B1FBF7F44FEA1E4307FBAB
:10042000141143EA014304FB06F199420AD91CEB7B
:10043000030304F1FF3080F01281994240F20F81F2
:10044000023C6344591A1FFA8EF3B1FBF7F007FB25
:10045000101143EA014300FB06F69E420AD91CEB49
:10046000030300F1FF3180F0FC809E4240F2F980EE
:10047000634402389B1B40EA044000211DB1D34075
:100480000022C5E90032BDE8F0878B4205D90DB1E5
:10049000C5E9000100210846F5E7B3FA83F1002918
:1004A00046D1A34202D39042C0F0F080861A64EB9A
:1004B00003030120002DE6D0C5E90063E3E7002A2D
:1004C00040F09080A1EB0C044FEA1C481FFA8CF717
:1004D0000121B4FBF8F64FEA1E4308FB164443EA39
:1004E000044307FB06F0984208D91CEB030306F10E
:1004F000FF3402D2984200F2CD8026461C1A1FFA21
:100500008EF3B4FBF8F008FB104443EA044300FB0D
:1005100007F79F4208D91CEB030300F1FF3402D216
:100520009F4200F2B0802046DB1B40EA0640A5E770
:10053000C1F120068B4022FA06F71F4320FA06FC81
:1005400004FA01F343EA0C03F44000FA01F8380C12
:100550004FEA1349B4FBF0FE1FFA87FC00FB1E4470
:1005600049EA04440EFB0CF9A14502FA01F20AD94A
:100570003C190EF1FF3A80F08480A14540F2818061
:10058000AEF1020E3C44A4EB09041FFA83F9B4FB5C
:10059000F0F300FB134449EA044403FB0CFCA445BC
:1005A00007D93C1903F1FF3067D2A44565D9023B56
:1005B0003C4443EA0E40A0FB0293A4EB0C049C4293
:1005C000CE469C4651D34ED055B1B8EB0E0364EBEA
:1005D0000C0404FA06F6CB401E43CC40C5E9006487
:1005E000002150E7C2F1200320FA03F10CFA02FCCB
:1005F00024FA03F394400C434FEA1C4800FA02FE2D
:100600001FFA8CF7B3FBF8F008FB1031230C43EA18
:10061000014300FB07F1994208D91CEB030300F1E9
:10062000FF362CD299422AD9023863445B1AA4B20D
:10063000B3FBF8F108FB113344EA034401FB07F371
:10064000A34208D91CEB040401F1FF3613D2A342E4
:1006500011D902396444E41A41EA004139E70446F9
:10066000F0E6084606E7C845AED2B9EB020E63EBEA
:10067000070C0138A8E73146EDE7034699E7304615
:10068000D4E7D6467FE7634402384DE70646234663
:1006900008460FE7023E634430E700BF704700BFE3
:1006A00080B582B000AF78604FF4C87002F0D4F823
:1006B000642302227021786803F0F6FB0346002BC6
:1006C00001D0012317E0786800F019F80346002BE9
:1006D00010D1786800F034F8786800F057F84B20B3
:1006E00002F0BAF8786800F00AF80346002B01D14E
:1006F000012300E0002318460837BD4680BD80B5C1
:1007000086B002AF78600023FB7307F10F02642309
:10071000009301237021786803F0D0FA0346002B80
:1007200001D0012307E04FF4C87002F095F8FB7B7D
:1007300003F00803DBB218461037BD4680BD000049
:1007400080B586B002AF78600F4A07F10C031268DB
:10075000114619800233120C1A7007F10C0264233F
:10076000009303237021786803F0B4F90346002B4B
:1007700001D0012304E04FF4C87002F06DF80023AB
:1007800018461037BD4680BD109C040880B586B061
:1007900002AF78600F4A07F10C0312681146198006
:1007A0000233120C1A7007F10C0264230093032326
:1007B0007021786803F08EF90346002B01D00123E5
:1007C00004E04FF4C87002F047F8002318461037D1
:1007D000BD4680BD149C040880B588B002AFF860A7
:1007E000B9607A6007F11002642300930623702138
:1007F000F86803F063FA0346002B01D0012319E0E7
:100800004FF4C87002F028F87B7C1A04BB7C1B02F2
:100810001343FA7C13431A09BB681A60FB7C1A0461
:100820003B7D1B0213437A7D1343C3F313027B68A2
:100830001A60002318461837BD4680BD80B483B0C7
:1008400000AF78607B6807EE903AB8EE677ADFED2C
:10085000096AC7EE267A9FED087A67EE877A9FEDE0
:10086000077A77EEC77AB0EE670A0C37BD465DF8B7
:10087000047B704700008049000048430000484264
:1008800080B483B000AF78607B6807EE903AB8EE32
:10089000677ADFED076AC7EE267A9FED067A67EE84
:1008A000877AB0EE670A0C37BD465DF8047B704767
:1008B000000080490000C84280B586B000AFF860F3
:1008C000B9607A6000237B6100233B61F868FFF721
:1008D000E7FE0346002B39D1F868FFF757FF4B209E
:1008E00001F0BAFF07F1100207F114031946F86886
:1008F000FFF772FF00F032F83B691846FFF79EFFE2
:10090000F0EE407ABB68C3ED007ABB68D3ED007AA5
:10091000B7EEE77A53EC172B0E4847F073F87B6974
:100920001846FFF7ADFFF0EE407A7B68C3ED007A22
:100930007B68D3ED007AB7EEE77A53EC172B0648C5
:1009400047F060F84FF47A7001F086FF00BF183767
:10095000BD4680BD189C0408289C040880B586B05C
:1009600000AF3B46002219460F4808F0A9F807F1EE
:100970001403002219460C4808F086F93B78194602
:100980007B781A46BB78094847F03CF8BB7D19468E
:100990007B7D1A46FB7D03F5FA63054847F032F884
:1009A00000BF1837BD4680BD58050024349C04089C
:1009B000489C040880B5C0B000AF07F58073A3F56C
:1009C000807300221A600433FC220021184647F08D
:1009D000DFF93B46064A0749184647F0B7F83B4659
:1009E000184600F0E1FB00BF07F58077BD4680BDEB
:1009F000589C0408709C040880B586B002AF7860EB
:100A00004FF00003FB604FF00003BB60FFF7A6FF51
:100A100007F1080207F10C0319460B48FFF74CFFDA
:100A2000D7ED037AB7EEE76AD7ED027AB7EEE77A49
:100A30008DED007B53EC162B0449786847F086F85F
:100A400000BF1037BD4680BDA80400247C9C04086C
:100A500080B582B000AF7860391D4FF6FF73012278
:100A6000034808F069FD7B6818460837BD4680BD1D
:100A70007C05002480B584B000AF3B4B5B6903F478
:100A80008033002B38D1384B0022C3F88420BFF3C9
:100A90004F8F00BF344BD3F88030FB60FB685B0B9B
:100AA000C3F30E03BB60FB68DB08C3F309037B6081
:100AB000BB685A0143F6E07313407A6892072A49EB
:100AC0001343C1F860327B685A1E7A60002BEFD165
:100AD000BB685A1EBA60002BE5D1BFF34F8F00BF31
:100AE000214B5B69204A43F480335361BFF34F8F3E
:100AF00000BFBFF36F8F00E000BF01F051FE00F0B8
:100B00003DF81A4BD3F8E030184A43F00073C2F8AE
:100B1000E030164BD3F8E03003F000733B603B68E5
:100B2000002002F019FF0021002002F02FFF00F04A
:100B300045FA00F0B1F800F0C3F900F00DFA00F04A
:100B400037F900F0F5F800F05FF942F005FC084ACB
:100B50000021084842F04AFC0346074A136042F06D
:100B60001FFC00BFFDE700BF00ED00E0004402589D
:100B700094310508291C0008540B002480B59CB052
:100B800000AF07F124034C220021184647F000F97A
:100B90003B1D20220021184647F0FAF8042004F0FB
:100BA000DFF800233B60394BDB6A384A23F001034E
:100BB000D362364BDB6A03F001033B60344B9B6925
:100BC000334A43F440439361314B9B6903F4404300
:100BD0003B603B6800BF2E4B9B6903F40053B3F5A9
:100BE000005FF8D104F0ACF801F05AFE294B1B6FFE
:100BF000284A23F0180313672E237B620123FB622C
:100C000001233B6340237B630123BB630123FB631D
:100C10000223BB640023FB6404233B6532237B6512
:100C20000223BB650423FB6502233B660C237B6622
:100C30000023BB660023FB6607F12403184604F07B
:100C4000F9F80346002B01D000F070FA3F237B60D7
:100C50000323BB600023FB6008233B6140237B61CF
:100C60004023BB614FF48063FB6140233B623B1D2B
:100C70000221184604F038FD0346002B01D000F095
:100C800055FA00BF7037BD4680BD00BF0004005854
:100C9000004802580044025880B500AF1E4B1F4A5E
:100CA0001A601F4B00221A701D4B80225A701C4B79
:100CB000E1229A701A4B0022DA70194B00221A7145
:100CC000174B00225A71144B154A5A60124B0122DD
:100CD0001A72114B134ADA600F4B134A1A610E4B0A
:100CE00040F2F4525A610C4801F00CFF0346002B0D
:100CF00001D000F01BFA382200210C4847F048F8D8
:100D00000A4B21221A60094B4FF440325A61074BBB
:100D100000221A6100BF80BDF80300240080024059
:100D2000580B002428030024C8020024C003002418
:100D300080B500AF1B4B1C4A1A601A4B1B4A5A6005
:100D4000184B00229A60174B0122DA60154B0022E3
:100D50001A61144B00225A61124B00229A61114B06
:100D60000022DA610F4B4FF400321A620D4802F094
:100D700021FE0346002B01D000F0D8F900210948DC
:100D800003F02CFC0346002B01D000F0CFF900212A
:100D9000044803F06EFC0346002B01D000F0C6F9B6
:100DA00000BF80BDA804002400540040FFECC01028
:100DB00080B500AF124B134A1A60114B00225A60E3
:100DC0000F4B00229A600E4B4FF6FF725A610C4B8C
:100DD00000221A620A4B00225A62094B00229A62D0
:100DE000074B0022DA62064B00221A63044803F024
:100DF0008DFC0346002B01D000F098F900BF80BDA8
:100E0000FC0400240024004080B586B000AF3B1DE8
:100E100000221A605A609A60DA601A6100233B600F
:100E2000254B264A1A60244B00225A60224B7F220F
:100E30009A60214BFF22DA601F4B00221A611E4B81
:100E400000229A611C4B0022DA611B4B00225A617E
:100E5000194807F015FD0346002B01D000F066F994
:100E600010233B7112237B710023BB7100233B6174
:100E700000237B613B1D012219460F4807F082FDCC
:100E80000346002B01D000F051F901233B700123F0
:100E90007B701223BB701023FB703B460122194666
:100EA000054807F069FE0346002B01D000F03EF92B
:100EB00000BF1837BD4680BD5805002400400058CB
:100EC00080B500AF224B234A1A60214B4FF4E13228
:100ED0005A601F4B00229A601D4B0022DA601C4BA7
:100EE00000221A611A4B0C225A61194B00229A6196
:100EF000174B0022DA61164B00221A62144B0022B3
:100F00005A62134B00229A62114808F0B5FA034660
:100F1000002B01D000F00AF900210D4809F021FC56
:100F20000346002B01D000F001F90021084809F028
:100F300056FC0346002B01D000F0F8F8044809F0F5
:100F4000D7FB0346002B01D000F0F0F800BF80BDB6
:100F50007C0500240048004080B500AF154B164AC0
:100F60001A60144B09225A60124B02221A61114B6B
:100F70000022DA600F4B02229A610E4B0022DA61E6
:100F80000C4B00221A620B4B00225A62094B0122C1
:100F90009A62084B0122DA62064B00221A63054866
:100FA00003F086FD0346002B01D000F0BFF800BF20
:100FB00080BD00BF480600240000084080B58CB00A
:100FC00000AF07F11C0300221A605A609A60DA60D1
:100FD0001A614B4BD3F8E030494A43F00403C2F89E
:100FE000E030474BD3F8E03003F00403BB61BB694A
:100FF000434BD3F8E030424A43F08003C2F8E0307C
:101000003F4BD3F8E03003F080037B617B693C4BBE
:10101000D3F8E0303A4A43F00103C2F8E030384BED
:10102000D3F8E03003F001033B613B69344BD3F864
:10103000E030334A43F01003C2F8E030304BD3F8CD
:10104000E03003F01003FB60FB682D4BD3F8E03079
:101050002B4A43F00203C2F8E030294BD3F8E030CA
:1010600003F00203BB60BB68254BD3F8E030244A91
:1010700043F00803C2F8E030214BD3F8E03003F02E
:1010800008037B607B681E4BD3F8E0301C4A43F0BA
:101090004003C2F8E0301A4BD3F8E03003F04003CD
:1010A0003B603B6800220221164802F021FC4FF40D
:1010B0000063FB614FF404133B6200237B6207F182
:1010C0001C0319460F4802F041F90223FB6101237A
:1010D0003B6200237B620023BB6207F11C031946BD
:1010E000084802F033F900220521282001F0D4FC41
:1010F000282001F0EBFC00BF3037BD4680BD00BFAB
:10110000004402580010025880B582B000AF7860E9
:101110007B681B68044A934201D101F07DFB00BF4C
:101120000837BD4680BD00BF0010004080B400AF4E
:1011300072B600BF00BFFDE780B584B000AFF860B5
:10114000B9601346FB80FB88002B03D1064846F0AC
:10115000C1FC04E0FB881946044846F053FC00BF7C
:101160001037BD4680BD00BF509E0408709E040825
:1011700080B582B000AF78600B46FB7097F9033002
:10118000002B03D1064846F0A5FC05E097F9033093
:101190001946044846F036FC00BF0837BD4680BDFE
:1011A000989E0408C09E040890B589B004AF78608A
:1011B000114BFB60114B1C687868FFF7F1F8034690
:1011C0009BB2002203920E4A029200220192002258
:1011D00000927A68F96820462EF0ECF80346FB721C
:1011E00097F90B30002B03D0064846F073FC00BF84
:1011F0001437BD4690BD00BF349F0408600B002427
:1012000071110008489F0408B0B58AB002AF2EF0F3
:101210009BF90346244A1360234B1B68002B05D11E
:10122000224846F057FC4FF0FF3338E0204B3C4655
:101230001D460FCD0FC495E8070084E80700002382
:1012400000221C491C4812F06DFB0346FB7797F9FE
:101250001F30002B02D1194846F03CFC15491848B4
:1012600015F0C7FA104B18683B4601930023009312
:10127000144B40F6BB320F492EF07CF90346BB7786
:1012800097F91E30002B05D00F4846F023FC4FF095
:10129000FF3304E042F2107001F0DEFA002318463A
:1012A0002037BD46B0BD00BF600B00245C9F040822
:1012B000DCA00408640B00247C9F0408A49F04089D
:1012C000C09F040839110008D09F040880B582B07F
:1012D00000AF0C4BD3F8F4300A4A43F00203C2F8D3
:1012E000F430084BD3F8F43003F002037B607B68E2
:1012F00000220F216FF0010001F0CEFB00BF083784
:10130000BD4680BD0044025880B58EB000AF786005
:1013100007F1240300221A605A609A60DA601A61A9
:101320007B681B68594A934240F0AB80584BD3F816
:10133000D830574A43F40043C2F8D830544BD3F85E
:10134000D83003F400433B623B6A514BD3F8D830AA
:101350004F4A43F48033C2F8D8304D4BD3F8D830DD
:1013600003F48033FB61FB69494BD3F8D830484A1A
:1013700043F40033C2F8D830454BD3F8D83003F4E7
:101380000033BB61BB69424BD3F8E030404A43F0C5
:101390000403C2F8E0303E4BD3F8E03003F004031E
:1013A0007B617B693A4BD3F8E030394A43F0010363
:1013B000C2F8E030364BD3F8E03003F001033B6174
:1013C0003B69334BD3F8E030314A43F00203C2F8B3
:1013D000E0302F4BD3F8E03003F00203FB60FB68F2
:1013E0002B4BD3F8E0302A4A43F04003C2F8E030F8
:1013F000274BD3F8E03003F04003BB60BB683223D7
:101400007B620223BB620023FB6200233B630B234E
:101410007B6307F1240319461E4801F097FF8623DA
:101420007B620223BB620023FB6200233B630B232E
:101430007B6307F124031946174801F087FF4FF437
:1014400000537B620223BB620023FB6200233B63E9
:101450000B237B6307F124031946104801F076FF44
:101460004FF420537B620223BB620023FB62002304
:101470003B630B237B6307F124031946084801F003
:1014800065FF00BF3837BD4680BD00BF0080024009
:101490000044025800080258000002580004025894
:1014A0000018025880B5BAB000AF786007F1D403D5
:1014B00000221A605A609A60DA601A6107F110031C
:1014C000C0220021184646F063FC7B681B68274A4F
:1014D000934246D14FF008024FF00003C7E90423BE
:1014E0000023C7F8943007F11003184604F0CAFC33
:1014F0000346002B01D0FFF719FE1D4BD3F8E03057
:101500001B4A43F00203C2F8E030194BD3F8E03035
:1015100003F00203FB60FB684FF44073C7F8D4305C
:101520001223C7F8D8300023C7F8DC300023C7F8EF
:10153000E0300423C7F8E43007F1D40319460D481E
:1015400001F004FF0A4BD3F8E830094A43F40013D2
:10155000C2F8E830064BD3F8E83003F40013BB6060
:10156000BB6800BFE837BD4680BD00BF00540040E7
:10157000004402580004025880B5B4B000AF78604F
:1015800007F11003C0220021184646F001FC7B68D9
:101590001B68194A93422AD14FF020024FF00003F2
:1015A000C7E904234FF04053C7F8A03007F11003F8
:1015B000184604F067FC0346002B01D0FFF7B6FD88
:1015C0000E4BD3F8E8300D4A43F40073C2F8E8300C
:1015D0000A4BD3F8E83003F40073FB60FB68002289
:1015E00005215D2001F058FA5D2001F06FFA00BF7F
:1015F000D037BD4680BD00BF0024004000440258E3
:1016000080B5B2B000AF786007F10803C0220021B6
:10161000184646F0BDFB7B681B68104A934219D1FF
:101620004FF480024FF00003C7E902234FF4007328
:10163000C7F8BC3007F10803184604F023FC034642
:10164000002B01D0FFF772FD054B1B6F044A43F4DA
:101650000043136700BFC837BD4680BD0040005837
:101660000044025880B5BCB000AF786007F1DC03DD
:1016700000221A605A609A60DA601A6107F1180352
:10168000C0220021184646F083FB7B681B68384A5D
:10169000934269D14FF480324FF00003C7E906232B
:1016A0000023BB6607F11803184604F0EBFB034662
:1016B000002B01D0FFF73AFD2E4BD3F8D4302D4A42
:1016C00043F48033C2F8D4302A4BD3F8D43003F437
:1016D00080337B617B69274BD3F8E030254A43F0A8
:1016E0000403C2F8E030234BD3F8E03003F00403E6
:1016F0003B613B691F4BD3F8E0301E4A43F00803BF
:10170000C2F8E0301B4BD3F8E03003F00803FB6075
:10171000FB684FF4F853C7F8DC300223C7F8E03019
:101720000023C7F8E4300323C7F8E8300C23C7F8D8
:10173000EC3007F1DC0319460F4801F007FE0423E3
:10174000C7F8DC300223C7F8E0300023C7F8E430E4
:101750000323C7F8E8300C23C7F8EC3007F1DC03AB
:101760001946064801F0F2FD00BFF037BD4680BDC6
:10177000007000520044025800080258000C025841
:1017800080B5BAB000AF786007F1D40300221A60C8
:101790005A609A60DA601A6107F11003C0220021D2
:1017A000184646F0F5FA7B681B68274A934246D1F3
:1017B0004FF002024FF00003C7E904230023C7F8EB
:1017C000883007F11003184604F05CFB0346002B39
:1017D00001D0FFF7ABFC1D4BD3F8E8301B4A43F4B4
:1017E0008023C2F8E830194BD3F8E83003F48023A3
:1017F000FB60FB68154BD3F8E030144A43F0080354
:10180000C2F8E030114BD3F8E03003F00803BB60BE
:10181000BB684FF44073C7F8D4300223C7F8D83000
:101820000023C7F8DC300023C7F8E0300723C7F8EF
:10183000E43007F1D4031946054801F087FD00BFE5
:10184000E837BD4680BD00BF004800400044025854
:10185000000C025880B5BAB000AF786007F1D4032D
:1018600000221A605A609A60DA601A6107F1100368
:10187000C0220021184646F08BFA7B681B68304A6C
:10188000934259D14FF480224FF00003C7E904235B
:101890004FF44013C7F8983007F11003184604F0CE
:1018A000F1FA0346002B01D0FFF740FC03F0B2FA37
:1018B000244BD3F8E030234A43F00103C2F8E03070
:1018C000204BD3F8E03003F00103FB60FB684FF4DA
:1018D000C853C7F8D4300223C7F8D8300023C7F85C
:1018E000DC300023C7F8E0300A23C7F8E43007F102
:1018F000D4031946144801F029FD4FF40073C7F8CA
:10190000D4300023C7F8D8300023C7F8DC3007F103
:10191000D40319460C4801F019FD0A4BD3F8D8300E
:10192000084A43F00063C2F8D830064BD3F8D830E9
:1019300003F00063BB60BB6800BFE837BD4680BDF5
:1019400000000840004402580000025880B590B0E2
:1019500000AF78607B680F2B27D80022796836208B
:1019600001F09AF8362001F0B1F8294A7B6813603B
:10197000284BD3F8E830274A43F01003C2F8E83088
:10198000244BD3F8E83003F01003FB60FB6807F149
:10199000100207F114031146184604F031FABB6A2D
:1019A000BB63BB6B002B06D101E001232BE004F0ED
:1019B000FBF9F86304E004F0F7F903465B00FB630E
:1019C000FB6B154AA2FB03239B0C013B7B63134B70
:1019D000134A1A60114B40F2E732DA600F4A7B6B10
:1019E00053600E4B00221A610C4B00229A600B4888
:1019F00007F068FA0346002B04D1084807F0C4FA40
:101A0000034600E0012318464037BD4680BD00BFB5
:101A1000840000240044025883DE1B437C0B002416
:101A20000010004080B400AF00BFFDE780B400AFFD
:101A300000BFFDE780B400AF00BFFDE780B400AF9A
:101A400000BFFDE780B400AF00BFFDE780B400AF8A
:101A500000BFBD465DF8047B704780B500AF4FF412
:101A6000006001F05EFF00BF80BD000080B500AFE8
:101A7000024807F001FB00BF80BD00BF7C0B0024C3
:101A800080B500AF024802F0FDFE00BF80BD00BF80
:101A9000FC04002480B400AF01231846BD465DF865
:101AA000047B704780B483B000AF78603960054B29
:101AB00016221A604FF0FF3318460C37BD465DF80A
:101AC000047B704710C9012480B582B000AF7860F4
:101AD0004FF0FF317868FFF7E5FF00BFFDE780B505
:101AE00086B000AFF860B9607A6000237B610AE0DD
:101AF000AFF300800146BB685A1CBA60CAB21A70C4
:101B00007B6901337B617A697B689A42F0DB7B6891
:101B100018461837BD4680BD80B586B000AFF86066
:101B2000B9607A6000237B6109E0BB685A1CBA6027
:101B30001B781846FEF78CFF7B6901337B617A695D
:101B40007B689A42F1DB7B6818461837BD4680BD3A
:101B500080B483B000AF78604FF0FF3318460C3785
:101B6000BD465DF8047B704780B483B000AF7860F9
:101B700039603B684FF400525A60002318460C3716
:101B8000BD465DF8047B704780B483B000AF7860D9
:101B9000012318460C37BD465DF8047B704780B4BE
:101BA00085B000AFF860B9607A600023184614373A
:101BB000BD465DF8047B704780B487B000AF7860A5
:101BC000144A154BD31A7B617B693B61134B1B682D
:101BD000002B02D1114B124A1A60104B1A687B6815
:101BE00013443A699A4205D20E4B0C221A604FF008
:101BF000FF3309E0094B1B68FB60084B1A687B68E0
:101C00001344064A1360FB6818461C37BD465DF84E
:101C1000047B70470000082400040000C80B002467
:101C200018C9012410C9012480B58EB000AF7860B6
:101C300000237B63002387F83030184845F04AFFC3
:101C400017480BF031FD0346002B04D0154845F032
:101C500041FFFFF76BFA07F13003184630F018FD2B
:101C600078637B6B002B04D00F4845F033FFFFF700
:101C70005DFA00233B7307F10C03013310220B497B
:101C8000184646F0E1F907F10C03184600F010F889
:101C900000F034FA00BF3837BD4680BDF8A0040814
:101CA0000000002434A1040850A104086CA1040819
:101CB00080B584B000AF78600023FB60114B002238
:101CC0001A6006220021104846F062F80F4845F0DD
:101CD00001FF7A680B490E4830F0C4FDF860FB68DC
:101CE000002B06D14FF0FF3300220021002044F0EA
:101CF00075FA40F6B83043F0C3FB00BF1037BD465D
:101D000080BD00BFCC0B0024D00B00247CA10408B4
:101D10004D1D000880B584B000AF78600023FB73D0
:101D20007B68213306220849184646F007F8034627
:101D3000002B03D10123FB73FB7B00E0FB7B1846E8
:101D40001037BD4680BD00BFD00B00242DE9F04107
:101D500094B008AF786239621346FB773B6AFB6246
:101D6000FB6A002B67D0FB7F012B07D1344B18682F
:101D700000230022002144F091FA5CE07B6A002BF2
:101D800059D0FB7F002B56D17B6A1B78002B52D099
:101D9000786AFFF7BFFF034683F00103DBB2002B35
:101DA00049D0FB6A1B685A1CFB6A1A607B6A03F104
:101DB0002102244B1068186092889A80FB6A1C6884
:101DC0007D6A7B6AB3F9283098467B6A93F838308D
:101DD0001E467B6A93F82130BB617B6A93F8223000
:101DE0007B617B6A93F823303B617B6A93F82430F4
:101DF000FB607B6A93F82530BB607B6A93F82630E2
:101E00007B607B6A5B6B184600F020F80346079303
:101E10007A680692BA680592FA6804923A6903925F
:101E20007A690292BB690193009643462A4621468D
:101E3000054845F0E7FD00BF3037BD46BDE8F081FD
:101E4000540B0024D00B0024B0A2040880B483B04B
:101E500000AF78607B686F4A934200F0CE807B6869
:101E60006C4A934200F3CF807B686B4A934200F048
:101E7000B2807B68684A934200F3C5807B68B3F107
:101E8000005F00F0BC807B68B3F1005F00F3BB80B3
:101E90007B68624A934200F0AE807B685F4A93425F
:101EA00000F3B1807B685E4A934200F0A2807B68B9
:101EB0005B4A934200F3A7807B685A4A934200F042
:101EC00096807B68574A934200F39D807B68564A10
:101ED000934200F08A807B68534A934200F39380D8
:101EE0007B68524A93427ED07B68504A934200F30B
:101EF0008A807B684E4A934273D07B684C4A9342F7
:101F000000F381807B684B4A934268D07B68494AE2
:101F1000934278DC7B68484A93425ED07B68464AAD
:101F2000934270DC7B68454A934252D07B68434AB7
:101F3000934268DC7B68424A934246D07B68404AC1
:101F4000934260DC7B683F4A934240D07B683D4AC5
:101F5000934258DC7B683C4A934234D07B683A4ACF
:101F6000934250DC7B68394A93422AD07B68374AD7
:101F7000934248DC7B68364A934220D07B68344ADF
:101F8000934240DC7B6848F20102934215D07B68A3
:101F900048F20102934236DC7B68042B31D07B6827
:101FA000042B30DC7B68002B03D07B68012B02D034
:101FB00029E0284B28E0284B26E0284B24E0284B3A
:101FC00022E0284B20E0284B1EE0284B1CE0284B49
:101FD0001AE0284B18E0284B16E0284B14E0284B59
:101FE00012E0284B10E0284B0EE0284B0CE0284B69
:101FF0000AE0284B08E0284B06E0284B04E0284B79
:1020000002E0284B00E0284B18460C37BD465DF82F
:10201000047B704704004042040040400600400238
:1020200004004002020040020600200204002002D8
:1020300002002002040040010400000106004000EC
:1020400004004000020040000600200004002000C0
:102050000200200004A304080CA3040814A304082D
:1020600020A3040830A304083CA304084CA30408DC
:102070005CA304086CA304087CA304088CA30408D4
:1020800098A30408A8A30408BCA30408D0A30408C8
:10209000E8A3040800A4040814A404082CA4040859
:1020A00040A404084CA4040858A4040880B586B0D1
:1020B00002AF786039607B68DBB23B737B681B0AD8
:1020C000DBB27B737B681B0CDBB2BB737B681B0EC4
:1020D000DBB2FB733B7B19467B7B1846BB7BFA7BF1
:1020E0000192009303460A463968034845F08AFC8A
:1020F00000BF1037BD4680BD6CA40408B0B5FEB06B
:1021000004AF0023C7F8E43107F5B073782200214B
:10211000184645F03DFE07F5A67314220021184627
:1021200045F036FE07F5B0731022AF49184645F06A
:102130008BFF07F5B07321330922AC49184645F0EF
:1021400083FFAB4BC7F8C43107F5B0731946A948F4
:1021500045F058FC0023C7F8E03123E007F5A672EC
:1021600007F5B0731146184630F0A6FDC7F8E40134
:10217000D7F8E431002B06D107F5B07319469E4815
:1021800045F040FC12E0D7F8E431642219469B4840
:1021900045F038FC642043F073F9D7F8E03101339F
:1021A000C7F8E031D7F8E031022BD7D9D7F8E431BE
:1021B000002B03D0924845F08DFC11E107F58073A8
:1021C000184631F0E9FAC7F8E401D7F8E431002BFA
:1021D00005D0D7F8E4118B4845F014FC00E1B7F9BD
:1021E0002E311946884845F00DFC97F830311946D4
:1021F000864845F007FC97F82131184697F82231B8
:102200001C4697F823311D4697F8243197F825216D
:1022100097F826110291019200932B46224601461F
:102220007B4845F0EFFB07F5A6731946002031F017
:102230000DF9C7F8E401D7F8E431002B05D0D7F841
:10224000E411744845F0DEFBCAE0D7F8503172491A
:102250001846FFF72BFF07F59C731946002031F055
:10226000C3F9C7F8E401D7F8E431002B05D0D7F85B
:10227000E4116A4845F0C6FBB2E0D7F83C31684942
:102280001846FFF713FF4FF4FA6043F0F9F807F52B
:102290009A7307F59C7140F6B832002031F0F2FADB
:1022A000C7F8E401D7F8E431002B05D0D7F8E431C2
:1022B0005C4A934207D00AE0D7F8343119465A48AD
:1022C00045F0A0FB0EE0594845F004FC0AE0D7F8C1
:1022D000E4319B0CD7F8E42192B21946544845F0FA
:1022E00091FB00BFFEF790FF0346C7F8E431D7F833
:1022F000E431002B22D04F4845F0ECFB0023C7F817
:10230000DC3116E0012202214B4801F0F1FA4FF4D2
:10231000FA7043F0B5F800220221474801F0E8FACC
:102320004FF4FA7043F0ACF8D7F8DC310133C7F85A
:10233000DC31D7F8DC31312BE4DD51E00122022120
:102340003D4801F0D5FA4FF4FA6043F099F807F5EB
:10235000F473A3F5F47300221A600433FC22002105
:10236000184645F015FD0123C7F8D8314FF47A70AF
:1023700043F086F8D7F8D821304B83FB021313447F
:102380005911D317C91A0B461B015B1A9B00D11AAE
:1023900000290DD10023C7F8D831294845F09AFB10
:1023A0003B461846FEF728FB3B461846FEF7FCFE68
:1023B000244B1B78012B0DD1224B00221A70FEF703
:1023C000F9FA4FF47A7043F05BF8D7F8D83101335B
:1023D000C7F8D831D7F8D8310133C7F8D831C5E7B5
:1023E00007F5F477BD46B0BD6CA1040884A40408C9
:1023F0000400400090A40408B8A40408E8A4040859
:1024000038A5040870A50408A8A50408B8A5040800
:10241000C8A50408E8A5040818A6040820A604080E
:1024200058A6040801002E0870A604089CA60408FB
:10243000ACA60408D4A6040800100258898888882D
:10244000ECA60408BC03002480B500AF0AF050FDE0
:1024500000BF80BD80B582B000AF0346FB80054B56
:1024600001221A70044845F035FB00BF0837BD460D
:1024700080BD00BFBC03002404A70408DFF834D0EB
:1024800000F0F8F80C480D490D4A002302E0D4583A
:10249000C4500433C4188C42F9D30A4A0A4C0023AE
:1024A00001E013600432A242FBD345F0A9FDFEF720
:1024B000E1FA70470000082400000024C80200244C
:1024C00020630E08A003002414C90124FEE780B590
:1024D00084B000AF78607B68002B05D172B600BF76
:1024E000FEF724FE00BFFDE70023FB6007E07B68EA
:1024F000FA68002143F82210FB680133FB60FB6897
:10250000012BF4D97B6800221A7200BF1037BD4638
:1025100080BD80B584B000AF78607B68002B05D1AA
:1025200072B600BFFEF702FE00BFFDE77B681B7AB4
:10253000012B05D972B600BFFEF7F8FD00BFFDE71D
:102540007B681B7A5A1CD1B27A6811721946EFF374
:1025500011824FF0500383F31188BFF36F8FBFF3E5
:102560004F8FFA60BB60FA687B6843F8212000BF98
:102570001037BD4680BD80B584B000AF78607B6801
:10258000002B05D172B600BFFEF7D0FD00BFFDE7FE
:102590007B681B7A013BDAB27B681A727B681B7A14
:1025A000012B05D972B600BFFEF7C0FD00BFFDE7E5
:1025B0007B681B7A1A467B6853F82230FB60FB6805
:1025C00083F3118800BF00BF1037BD4680BD0000F7
:1025D00080B582B000AF78607B68002B03D10F4BD1
:1025E00016221A6016E00C2044F066FB03461A46D9
:1025F0007B681A607B681B68002B05D07B681B68B2
:102600001846FFF764FF05E072B600BFFEF78EFDC7
:1026100000BFFDE70837BD4680BD00BF10C90124DB
:1026200080B582B000AF78607B68002B05D172B6B0
:1026300000BFFEF77BFD00BFFDE77B681846FFF794
:1026400068FF00BF0837BD4680BD80B582B000AFCF
:1026500078607B68002B05D172B600BFFEF766FD7F
:1026600000BFFDE77B681846FFF785FF00BF08370E
:10267000BD4680BD80B400AF3D4BD3F888303C4AA6
:1026800043F47003C2F88830394B1B69384A43F071
:1026900010031361374B1B6803F00F03062B07D899
:1026A000344B1B6823F00F03324A43F007031360D7
:1026B000314B1B68304A43F0010313602E4B00225C
:1026C0001A612D4B1A682C492C4B13400B60294B77
:1026D0001B6803F00803002B07D0264B1B6823F070
:1026E0000F03244A43F007031360234B00229A612F
:1026F000214B0022DA61204B00221A621E4B204A35
:102700009A621D4B1F4ADA621B4B1F4A1A631A4B0F
:1027100000225A63184B1C4A9A63174B0022DA6353
:10272000154B194A1A64144B00225A64124B1B6849
:10273000114A23F4802313600F4B00221A66134BB7
:102740005B6A124A43F480435362114B1A68114B7F
:102750001340B3F1005F02D20F4B01221A600F4BFE
:1027600043F2D2021A6000BFBD465DF8047B704799
:1027700000ED00E000200052004402587FEDF6EA30
:10278000000202020000FF0180020101C0000058A7
:102790000010005C0000FFFF088100510040005263
:1027A00080B582B000AF032000F06BF903F052F95E
:1027B0000246154B9B691B0A03F00F031349CB5CC0
:1027C00003F01F0322FA03F37B600F4B9B6903F0B6
:1027D0000F030E4AD35C03F01F037A6822FA03F357
:1027E0000B4A13600B4A7B6813600F20FFF7AEF8AB
:1027F0000346002B01D0012302E0FEF767FD002312
:1028000018460837BD4680BD00440258B831050857
:10281000800000247C00002480B400AF064B1B78AD
:102820001A46064B1B681344044A136000BFBD469A
:102830005DF8047B704700BF88000024F00B002483
:1028400080B400AF034B1B681846BD465DF8047B9F
:10285000704700BFF00B002480B584B000AF7860F3
:10286000FFF7EEFFB8607B68FB60FB68B3F1FF3FEA
:1028700005D00A4B1B781A46FB681344FB6000BF67
:10288000FFF7DEFF0246BB68D31AFA689A42F7D810
:1028900000BF00BF1037BD4680BD00BF88000024C8
:1028A00080B400AF034B1B681B0C1846BD465DF897
:1028B000047B70470010005C80B483B000AF786088
:1028C000064B5B6823F4600204497B6813434B604A
:1028D00000BF0C37BD465DF8047B7047000400580C
:1028E00080B485B000AF78607B6803F00703FB60BD
:1028F0000B4BDB68BB60BA684FF6FF031340BB604D
:10290000FB681A02BB681A43064B1343BB60044AB8
:10291000BB68D36000BF1437BD465DF8047B7047C9
:1029200000ED00E00000FA0580B400AF044BDB6866
:102930001B0A03F007031846BD465DF8047B704789
:1029400000ED00E080B483B000AF0346FB80B7F930
:102950000630002B0BDBFB8803F01F020749B7F999
:1029600006305B09012000FA02F241F8232000BF83
:102970000C37BD465DF8047B704700BF00E100E006
:1029800080B483B000AF0346FB80B7F90630002B5C
:1029900012DBFB8803F01F020A49B7F906305B0916
:1029A000012000FA02F2203341F82320BFF34F8FB9
:1029B00000BFBFF36F8F00BF00BF0C37BD465DF88F
:1029C000047B704700E100E080B483B000AF0346B1
:1029D0003960FB80B7F90630002B0ADB3B68DAB2BE
:1029E0000C49B7F906301201D2B20B4483F8002328
:1029F0000AE03B68DAB20849FB8803F00F03043BA6
:102A00001201D2B20B441A7600BF0C37BD465DF8F6
:102A1000047B704700E100E000ED00E080B489B085
:102A200000AFF860B9607A60FB6803F00703FB61F0
:102A3000FB69C3F10703042B28BF0423BB61FB69B7
:102A40000433062B02D9FB69033B00E000237B61C2
:102A50004FF0FF32BB6902FA03F3DA43BB681A4056
:102A60007B699A404FF0FF317B6901FA03F3D94348
:102A70007B680B40134318462437BD465DF8047B42
:102A8000704780B582B000AF78607868FFF728FFA4
:102A900000BF0837BD4680BD80B586B000AF034695
:102AA000B9607A60FB81FFF73FFF78617A68B968A7
:102AB0007869FFF7B3FF0246B7F90E3011461846A2
:102AC000FFF782FF00BF1837BD4680BD80B582B0DA
:102AD00000AF0346FB80B7F906301846FFF732FF18
:102AE00000BF0837BD4680BD80B582B000AF034649
:102AF000FB80B7F906301846FFF742FF00BF0837E2
:102B0000BD4680BD80B584B000AF78607B68002B87
:102B100001D10123CFE07B68D3F88430002B06D1AC
:102B20007B682322C3F884207868FEF7EDFB644BB2
:102B3000D3F8F430624A43F00203C2F8F430604B39
:102B4000D3F8F43003F00203BB60BB687B681B7AE8
:102B5000002B03D10020FFF7AFFE03E04FF400008D
:102B6000FFF7AAFE574B5B687B681B6803F5805331
:102B70001B687A68126843F0010302F58052136003
:102B8000FFF75EFEF86011E0FFF75AFE0246FB68B1
:102B9000D31AB3F5FA7F09D97B680422C3F88820D9
:102BA0007B68E022C3F88420012384E07B681B68F3
:102BB00003F580531B6803F00103002BE4D1786810
:102BC00000F086F803F0C0F803463F4AA2FB032357
:102BD0009A0C7B681B68013AC3F8DC20786800F027
:102BE00071FA7B681B6803F58053D3F8003123F436
:102BF000E0137A68126843F4002302F58052C2F8A9
:102C000000317B685B6903F00303002B09D07B680C
:102C10000122C3F888207B68E022C3F884200123C6
:102C200049E07B681B6803F58053D3F80821274BE4
:102C300013407A68526951007A6812680B4302F5B2
:102C40008052C2F80831786800F0D9FA786800F04C
:102C50001FFB7B685B6805331B781A027B685B6827
:102C600004331B7819467B681B680A43C3F80023AA
:102C70007B685B6803331B781A067B685B680233EA
:102C80001B781B041A437B685B6801331B781B02AB
:102C90001A437B685B681B7819467B681B680A438C
:102CA000C3F804237B680022C3F888207B681022C5
:102CB000C3F88420002318461037BD4680BD00BFEE
:102CC000004402580004005883DE1B430180FFFFCC
:102CD00080B584B000AF78607B681B68D3F80032A1
:102CE000FB60FB6823F47063FB6003F02DF8B860B1
:102CF000BB681E4A934208D9BB681D4A934204D858
:102D0000FB6843F40073FB6027E0BB68184A9342FA
:102D100008D9BB68174A934204D2FB6843F4407356
:102D2000FB601AE0BB68134A934203D3BB68124AA4
:102D3000934211D9BB68104A934208D9BB680F4A25
:102D4000934204D8FB6843F48073FB6005E0FB68A2
:102D500043F48063FB6000E000BF7B681B68FA6897
:102D6000C3F8002200BF1037BD4680BDFF2C3101E3
:102D7000BF0E160200879303FFE0F5057FD1F00830
:102D800080B485B000AF786039603B689A683B6872
:102D90001B681A433B681B79DB061A433B681B7BA5
:102DA000DB051A433B685B7B9B051A433B689B7BB7
:102DB0005B051A433B68DB7B1B0513433A68127CB7
:102DC000002A02D14FF4002200E0002213433A68A7
:102DD000527C002A02D14FF4003200E000221A4354
:102DE0003B689B7C1B041A433B685B691A433B6846
:102DF0009B691A433B681B7F1B031A433B685B7F3D
:102E0000DB0213433A68927F002A02D14FF48062BA
:102E100000E000221A433B68DB7F5B0213433A6801
:102E200092F82020002A02D14FF4807200E00022A4
:102E30001A433B685B6A1A433B6893F828301B01CE
:102E40001A433B68DB6A1343FB607B681B681A68A4
:102E5000564B13407A681268F9680B4313603B685D
:102E6000DB6B5A063B6893F838301B061A433B6805
:102E700093F830309B041A433B6893F831305B047D
:102E800013433A6892F83220002A02D14FF480327C
:102E900000E000221A433B685B6B1343FB607B68D6
:102EA0001B685A68424B13407A681268F9680B43F2
:102EB00053603B6893F840301A023B685B6C1343E5
:102EC000FB607B681B68DA683A4B13407A681268CB
:102ED000F9680B43D3603B6893F854305A003B6861
:102EE0001B6D13433A6892F84C20002A01D18022CE
:102EF00000E000221A433B689B6C1B041343FB60F9
:102F00007B681B681A6F4FF60D7313407A6812685E
:102F1000F9680B4313673B6893F856301A463B68D1
:102F200093F855305B001343FB607B681B68D3F854
:102F3000903023F003017B681B68FA680A43C3F8EA
:102F400090207B681B68D3F8003D23F072013B683A
:102F50009A6D7B681B680A43C3F8002D3B68DB6DE4
:102F60003A6892F86020002A01D1402200E0002255
:102F70001A433B6893F861301B011A433B6893F88E
:102F80006230DB001343FB607B681B68D3F8303D85
:102F900023F07B017B681B68FA680A43C3F8302D75
:102FA00000BF1437BD465DF8047B70478380040082
:102FB0000080F8C0F0FEFFFF80B485B000AF7860FD
:102FC00039607B681B6803F580531A68384B1340DF
:102FD0003A6811687A6812680B4302F580521360F0
:102FE0003B681B791A033B689B681A433B681B7B51
:102FF000DB031343FB607B681B6803F580535A684F
:103000002C4B13407A681268F9680B4302F5805222
:1030100053603B685B7B1A043B681B6A1343FB608D
:103020007B681B6803F58053D3F80021224B1340C3
:103030007A681268F9680B4302F58052C2F80031D1
:103040003B681A693B681B7D1B011A433B685B7F29
:103050001B031343FB607B681B6803F58053D3F8A5
:103060000421164B13407A681268F9680B4302F585
:103070008052C2F804313B681B7FDA073B689B69CA
:103080001343FB607B681B6803F58053D3F808216A
:103090000B4B13407A681268F9680B4302F58052B3
:1030A000C2F8083100BF1437BD465DF8047B704795
:1030B000FD87FFFFFE2FFFFF00C0FEFFEFEFC0FF09
:1030C000FFFFC07F80B5A4B000AF7860012387F810
:1030D0003B3000233B65002387F84930002387F805
:1030E0004B30012387F83030012387F85E3001230D
:1030F00087F83A30002387F85430012387F88C3062
:103100004FF400537B64002387F864300023BB66D0
:10311000002387F88D30002387F88E304FF4C36387
:103120003B66002387F8383000237B63012387F850
:103130003D30002387F83E30002387F848300023D5
:10314000FB6700237B670023BB65002387F86C3097
:10315000002387F88230012387F84A302023C7F8FC
:103160008830012387F84C30002387F85D304FF01A
:103170004053FB624FF480433B64002387F83930AF
:103180000223C7F88430002387F88030002387F8B3
:103190008130002387F85C30012387F83C3000231E
:1031A0003B67012387F8783007F12C0319467868CC
:1031B000FFF7E6FD01233B7301233B610023BB6066
:1031C000002387F8243000237B7500233B754FF4E0
:1031D00000133B6200233B774FF40013BB610023D5
:1031E00087F825304FF40673BB6207F108031946D0
:1031F0007868FFF7E1FE00BF9037BD4680BD80B420
:1032000085B000AF78600023FB601DE07B68D96863
:10321000FA6813465B001344DB000B44BB60BB68D9
:1032200000221A60BB6800225A60BB6800229A60C4
:10323000BB680022DA60B9687B68FA68063243F836
:103240002210FB680133FB60FB68032BDED97B682F
:1032500000229A627B681B6803F580531A46032399
:10326000C2F82C317B68DA687B681B6803F58053F1
:10327000C3F814217B68DA687B681B6803F5805308
:10328000C3F8202100BF1437BD465DF8047B7047AA
:1032900080B485B000AF78600023FB6023E07B68DA
:1032A0001969FA6813465B001344DB000B44BB60EA
:1032B000BB6800221A60BB6800225A60BB6800220B
:1032C0009A60BB680022DA60BB6800221A61BB68A2
:1032D00000225A61B9687B68FA68123243F82210FA
:1032E000FB680133FB60FB68032BD8D97B680022A5
:1032F000DA657B6800221A667B6800229A667B6822
:103300000022DA667B6800229A657B681B6803F5F9
:1033100080531A460323C2F830317B681A697B68F0
:103320001B6803F58053C3F81C217B681B6903F1FC
:1033300048027B681B6803F58053C3F8282100BF4F
:103340001437BD465DF8047B7047000080B489B037
:1033500000AF786039600023FB61894B7B6194E1A9
:103360003B681A680121FB6901FA03F313403B61D2
:103370003B69002B00F086813B685B6803F0030328
:10338000012B05D03B685B6803F00303022B30D1AF
:103390007B689B68BB61FB695B00032202FA03F355
:1033A000DB43BA691340BB613B68DA68FB695B00C9
:1033B00002FA03F3BA691343BB617B68BA699A6086
:1033C0007B685B68BB610122FB6902FA03F3DB43A4
:1033D000BA691340BB613B685B681B0903F00102DB
:1033E000FB6902FA03F3BA691343BB617B68BA69EC
:1033F0005A603B685B6803F00303032B17D07B68BC
:10340000DB68BB61FB695B00032202FA03F3DB4369
:10341000BA691340BB613B689A68FB695B0002FABA
:1034200003F3BA691343BB617B68BA69DA603B682E
:103430005B6803F00303022B23D1FB69DA087B6886
:10344000083253F82230BB61FB6903F007039B008D
:103450000F2202FA03F3DB43BA691340BB613B68F6
:103460001A69FB6903F007039B0002FA03F3BA69C8
:103470001343BB61FB69DA087B680832B96943F81A
:1034800022107B681B68BB61FB695B00032202FAA8
:1034900003F3DB43BA691340BB613B685B6803F02D
:1034A0000302FB695B0002FA03F3BA691343BB61D1
:1034B0007B68BA691A603B685B6803F44033002B91
:1034C00000F0E0802F4BD3F8F4302E4A43F0020393
:1034D000C2F8F4302B4BD3F8F43003F00203FB6056
:1034E000FB68294AFB699B08023352F82330BB6111
:1034F000FB6903F003039B000F2202FA03F3DB4393
:10350000BA691340BB617B68204A934252D07B6802
:103510001F4A934231D07B681E4A93422BD07B686E
:103520001D4A934225D07B681C4A93421FD07B687A
:103530001B4A934219D07B681A4A934213D07B6886
:10354000194A93420DD07B68184A934207D07B6892
:10355000174A934201D109232DE00A232BE00823C7
:1035600029E0072327E0062325E0052323E00423A1
:1035700021E003231FE002231DE001231BE000BF25
:10358000800000580044025800040058000002580F
:103590000004025800080258000C0258001002589B
:1035A0000014025800180258001C0258002002584B
:1035B000002402580023FA6902F0030292009340AB
:1035C000BA691343BB613849FB699B080233BA6986
:1035D00041F823204FF0B0431B68BB613B69DB43DC
:1035E000BA691340BB613B685B6803F48013002B2E
:1035F00003D0BA693B691343BB614FF0B042BB696A
:1036000013604FF0B0435B68BB613B69DB43BA6951
:103610001340BB613B685B6803F40013002B03D0CD
:10362000BA693B691343BB614FF0B042BB69536059
:103630007B695B68BB613B69DB43BA691340BB6173
:103640003B685B6803F40033002B03D0BA693B6925
:103650001343BB617B69BA695A607B691B68BB61B4
:103660003B69DB43BA691340BB613B685B6803F4A9
:103670008033002B03D0BA693B691343BB617B697C
:10368000BA691A60FB690133FB613B681A68FB6920
:1036900022FA03F3002B7FF463AE00BF00BF243790
:1036A000BD465DF8047B70470004005880B487B0C5
:1036B00000AF7860396000237B61754B3B61D9E0D6
:1036C00001227B6902FA03F33A681340FB60FB684E
:1036D000002B00F0CC806F4A7B699B08023352F8C4
:1036E0002330BB607B6903F003039B000F2202FAC7
:1036F00003F3BA681340BB607B68674A934237D0D4
:103700007B68664A934231D07B68654A93422BD0EE
:103710007B68644A934225D07B68634A93421FD0FA
:103720007B68624A934219D07B68614A934213D006
:103730007B68604A93420DD07B685F4A934207D012
:103740007B685E4A934201D1092312E00A2310E00C
:1037500008230EE007230CE006230AE0052308E017
:10376000042306E0032304E0022302E0012300E037
:1037700000237A6902F0030292009340BA689A42E9
:1037800036D13B691A68FB68DB431A403B691A6013
:103790003B695A68FB68DB431A403B695A604FF04B
:1037A000B0435A68FB68DB434FF0B04113404B60B5
:1037B0004FF0B0431A68FB68DB434FF0B041134051
:1037C0000B607B6903F003039B000F2202FA03F3F3
:1037D000BB60304A7B699B08023352F82310BB68F8
:1037E000DA432C487B699B080A40023340F82320C7
:1037F0007B681A687B695B00032101FA03F31A43B3
:103800007B681A607B69DA087B68083253F82210FB
:103810007B6903F007039B000F2202FA03F3DB43EB
:103820007A69D20819407B68083243F822107B6815
:10383000DA687B695B00032101FA03F3DB431A407A
:103840007B68DA607B685A6801217B6901FA03F3BF
:10385000DB431A407B685A607B689A687B695B002F
:10386000032101FA03F3DB431A407B689A607B690A
:1038700001337B613A687B6922FA03F3002B7FF402
:103880001FAF00BF00BF1C37BD465DF8047B70470B
:10389000800000580004005800000258000402583C
:1038A00000080258000C0258001002580014025878
:1038B00000180258001C0258002002580024025828
:1038C00080B485B000AF78600B467B807B681A6956
:1038D0007B881340002B02D00123FB7301E00023FF
:1038E000FB73FB7B18461437BD465DF8047B7047BD
:1038F00080B483B000AF78600B467B8013467B704A
:103900007B78002B03D07A887B689A6103E07B8800
:103910001A047B689A6100BF0C37BD465DF8047BD2
:10392000704780B582B000AF0346FB804FF0B043D4
:10393000D3F88820FB881340002B08D04FF0B0420A
:10394000FB88C2F88830FB881846FEF783FD00BF6D
:103950000837BD4680BD000080B483B000AF7860FA
:10396000084A7B68203352F82330074A934201D13A
:10397000002300E0012318460C37BD465DF8047BA8
:10398000704700BF006402580003008080B483B019
:1039900000AF7860396006493B6843F440727B6849
:1039A00041F8232000BF0C37BD465DF8047B70470B
:1039B0000064025880B582B000AF78607B68002B4D
:1039C00001D101237FE07B6893F84130DBB2002B0B
:1039D00006D17B68002283F840207868FDF762FDFD
:1039E0007B68242283F841207B681B681A687B6807
:1039F0001B6822F001021A607B685A687B681B68AA
:103A000022F070621A617B681B689A687B681B6889
:103A100022F400429A607B68DB68012B07D17B6847
:103A20009A687B681B6842F400429A6006E07B68F3
:103A30009A687B681B6842F404429A607B68DB6882
:103A4000022B04D17B681B684FF400625A607B68CC
:103A50001B6859687B681A681D4B0B4353607B6871
:103A60001B68DA687B681B6822F40042DA607B68B6
:103A70001A697B685B6942EA03017B689B691A02E9
:103A80007B681B680A43DA607B68D9697B681A6ABD
:103A90007B681B680A431A607B681B681A687B682E
:103AA0001B6842F001021A607B6800225A647B683E
:103AB000202283F841207B6800221A637B68002261
:103AC00083F84220002318460837BD4680BD00BF5A
:103AD0000080000280B588B002AFF8607A601A46B4
:103AE0000B467B8113463B81FB6893F84130DBB288
:103AF000202B40F0DA80FB6893F84030012B01D195
:103B00000223D3E0FB68012283F84020FEF798FEF1
:103B100078617B690093192301224FF40041F86812
:103B200000F0EEFA0346002B01D00123BEE0FB6853
:103B3000212283F84120FB68102283F84220FB6891
:103B400000225A64FB687A685A62FB683A895A858F
:103B5000FB6800225A63FB685B8D9BB2FF2B0ED97A
:103B6000FB68FF221A85FB681B8DDAB27989514BFD
:103B700000934FF08073F86800F0FEFC6CE0FB6887
:103B80005B8D9AB2FB681A85FB681B8DDAB2798966
:103B9000484B00934FF00073F86800F0EDFC5BE0D9
:103BA0007A69396AF86800F0FAFA0346002B01D006
:103BB00001237BE0FB685B6A1A78FB681B689A62EA
:103BC000FB685B6A5A1CFB685A62FB685B8D9BB2A0
:103BD000013B9AB2FB685A85FB681B8D013B9AB288
:103BE000FB681A85FB685B8D9BB2002B34D0FB68A9
:103BF0001B8D002B30D17B6900933B6A0022802112
:103C0000F86800F07DFA0346002B01D001234DE057
:103C1000FB685B8D9BB2FF2B0ED9FB68FF221A85D8
:103C2000FB681B8DDAB27989002300934FF0807313
:103C3000F86800F0A1FC0FE0FB685B8D9AB2FB68AE
:103C40001A85FB681B8DDAB27989002300934FF047
:103C50000073F86800F090FCFB685B8D9BB2002B52
:103C60009ED17A69396AF86800F0E0FA0346002BC1
:103C700001D001231AE0FB681B682022DA61FB688F
:103C80001B685968FB681A680B4B0B405360FB6854
:103C9000202283F84120FB68002283F84220FB6841
:103CA000002283F84020002300E002231846183742
:103CB000BD4680BD0020008000E800FE80B588B0D1
:103CC00002AFF8607A601A460B467B8113463B814F
:103CD000FB6893F84130DBB2202B40F0DB80FB68BF
:103CE00093F84030012B01D10223D4E0FB6801227C
:103CF00083F84020FEF7A4FD78617B6900931923C7
:103D000001224FF40041F86800F0FAF90346002B55
:103D100001D00123BFE0FB68222283F84120FB6829
:103D2000102283F84220FB6800225A64FB687A68FC
:103D30005A62FB683A895A85FB6800225A63FB681D
:103D40005B8D9BB2FF2B0ED9FB68FF221A85FB68A7
:103D50001B8DDAB27989524B00934FF08073F8686B
:103D600000F00AFC6DE0FB685B8D9AB2FB681A8577
:103D7000FB681B8DDAB27989494B00934FF00073D1
:103D8000F86800F0F9FB5CE07A69396AF86800F0DD
:103D900091FA0346002B01D001237CE0FB681B68ED
:103DA0005A6AFB685B6AD2B21A70FB685B6A5A1C7B
:103DB000FB685A62FB681B8D013B9AB2FB681A854F
:103DC000FB685B8D9BB2013B9AB2FB685A85FB682E
:103DD0005B8D9BB2002B34D0FB681B8D002B30D148
:103DE0007B6900933B6A00228021F86800F088F923
:103DF0000346002B01D001234DE0FB685B8D9BB295
:103E0000FF2B0ED9FB68FF221A85FB681B8DDAB2E7
:103E10007989002300934FF08073F86800F0ACFBC1
:103E20000FE0FB685B8D9AB2FB681A85FB681B8DFF
:103E3000DAB27989002300934FF00073F86800F03C
:103E40009BFBFB685B8D9BB2002B9DD17A69396A25
:103E5000F86800F0EBF90346002B01D001231AE0CB
:103E6000FB681B682022DA61FB681B685968FB68E5
:103E70001A680C4B0B405360FB68202283F84120EA
:103E8000FB68002283F84220FB68002283F8402070
:103E9000002300E0022318461837BD4680BD00BF4E
:103EA0000024008000E800FE80B58AB002AFF86010
:103EB0007A603B600B467B8100237B61FB6893F853
:103EC0004130DBB2202B40F0EF80FB681B689B6920
:103ED00003F40043B3F5004F01D10223E5E0FB6892
:103EE00093F84030012B01D10223DEE0FB68012270
:103EF00083F84020FB68242283F84120FB680022DD
:103F00005A64FB68DB68012B05D17B89C3F3090286
:103F1000684B134304E07B89C3F3090343F4205344
:103F2000FA6812685360FEF78BFCB861FB681B6887
:103F30009B6903F02003202B0CBF01230023DBB27D
:103F4000FB77FB681B689B6903F01003102B0CBF09
:103F500001230023DBB2BB7734E03B68B3F1FF3FC2
:103F60001AD0FEF76DFC0246BB69D31A3A689A4232
:103F700002D33B68002B0FD1FB68202283F841203D
:103F8000FB685B6C43F02002FB685A64FB6800220C
:103F900083F84020012388E0FB681B689B6903F0DD
:103FA0002003202B0CBF01230023DBB2FB77FB682F
:103FB0001B689B6903F01003102B0CBF0123002327
:103FC000DBB2BB77FB7F002B02D1BB7F002BC4D0C1
:103FD000FB681B689B6903F01003102B1AD0BB69A8
:103FE00000933B6800222021F86800F089F803461E
:103FF000002B01D0012358E0FB681B682022DA6106
:10400000FB68202283F84120FB68002283F84020CF
:1040100000234AE0BB6900933B6800222021F86836
:1040200000F06EF80346002B01D001233DE0FB6851
:104030001B681022DA61FB681B682022DA617B6949
:104040007A689A4218D1FB681B685A68FB681B683B
:1040500042F480425A60BB6900933B6800222021F1
:10406000F86800F04DF80346002B01D001231CE056
:10407000FB681B682022DA617B6901337B617B6905
:104080007A689A423FF63DAFFB68202283F84120D0
:10409000FB685B6C43F02002FB685A64FB680022FB
:1040A00083F84020012300E0022318462037BD4654
:1040B00080BD00BF0020000280B483B000AF7860F4
:1040C0007B681B689B6903F00203022B03D17B68AA
:1040D0001B6800229A627B681B689B6903F00103DE
:1040E000012B07D07B681B689A697B681B6842F0CC
:1040F00001029A6100BF0C37BD465DF8047B704732
:1041000080B584B000AFF860B9603B601346FB71C6
:1041100031E03B68B3F1FF3F2DD0FEF791FB024643
:10412000BB69D31A3A689A4202D33B68002B22D16A
:10413000FB681B689A69BB681340BA689A420CBF57
:1041400001230023DBB21A46FB799A4213D1FB68A4
:104150005B6C43F02002FB685A64FB68202283F802
:104160004120FB68002283F84220FB68002283F88C
:10417000402001230FE0FB681B689A69BB6813406D
:10418000BA689A420CBF01230023DBB21A46FB79BE
:104190009A42BED0002318461037BD4680BD80B578
:1041A00084B000AFF860B9607A6033E07A68B968CB
:1041B000F86800F001F90346002B01D0012331E03B
:1041C000BB68B3F1FF3F25D0FEF73AFB02467B68A0
:1041D000D31ABA689A4202D3BB68002B1AD1FB6883
:1041E0001B689B6903F00203022B13D0FB685B6C16
:1041F00043F02002FB685A64FB68202283F84120C8
:10420000FB68002283F84220FB68002283F84020EC
:10421000012307E0FB681B689B6903F00203022B84
:10422000C4D1002318461037BD4680BD80B584B088
:1042300000AFF860B9607A602FE07A68B968F86812
:1042400000F0BAF80346002B01D001232DE0FEF761
:10425000F7FA02467B68D31ABA689A4202D3BB685F
:10426000002B1AD1FB681B689B6903F02003202BED
:1042700013D0FB685B6C43F02002FB685A64FB6858
:10428000202283F84120FB68002283F84220FB684B
:10429000002283F84020012307E0FB681B689B692C
:1042A00003F02003202BC8D1002318461037BD4649
:1042B00080BD000080B584B000AFF860B9607A605E
:1042C0006BE07A68B968F86800F076F80346002B6E
:1042D00001D0012369E0FB681B689B6903F02003A0
:1042E000202B38D1FB681B689B6903F00403042B67
:1042F00005D1FB681B8D002B01D0002355E0FB6826
:104300001B689B6903F01003102B07D1FB681B6827
:104310001022DA61FB6804225A6402E0FB68002282
:104320005A64FB681B682022DA61FB681B685968C5
:10433000FB681A681F4B0B405360FB68202283F810
:104340004120FB68002283F84220FB68002283F8AA
:104350004020012329E0FEF773FA02467B68D31A56
:10436000BA689A4202D3BB68002B16D1FB681B685F
:104370009B6903F00403042B0FD0FB685B6C43F0D4
:104380002002FB685A64FB68202283F84120FB6806
:10439000002283F84020012307E0FB681B689B692B
:1043A00003F00403042B8CD1002318461037BD46BC
:1043B00080BD00BF00E800FE80B58AB000AFF860A5
:1043C000B9607A60002387F82730FB681B689B6917
:1043D000BB6100233B627B68FB61BB6903F0100398
:1043E000002B68D0FB681B681022DA6149E0BB68CB
:1043F000B3F1FF3F45D0FEF723FA0246FB69D31A1B
:10440000BA689A4202D3BB68002B3AD1FB681B689A
:104410005B6803F480437B61FB6893F84230FB7474
:10442000FB681B689B6903F40043B3F5004F21D17F
:104430007B69B3F5804F1DD0FB7C202B1AD0FB6825
:104440001B685A68FB681B6842F480425A60FEF79A
:10445000F7F9F8610EE0FEF7F3F90246FB69D31AAB
:10446000192B07D93B6A43F020033B62012387F8ED
:10447000273006E0FB681B689B6903F02003202BB4
:10448000E9D1FB681B689B6903F02003202B03D054
:1044900097F82730002BAAD097F82730002B03D1AC
:1044A000FB681B682022DA613B6A43F004033B622D
:1044B000012387F82730FB681B689B69BB61BB69D8
:1044C00003F48073002B0BD03B6A43F001033B6283
:1044D000FB681B684FF48072DA61012387F827308C
:1044E000BB6903F48063002B0BD03B6A43F00803E5
:1044F0003B62FB681B684FF48062DA61012387F836
:104500002730BB6903F40073002B0BD03B6A43F0E8
:1045100002033B62FB681B684FF40072DA610123FF
:1045200087F8273097F82730002B1CD0F868FFF762
:10453000C3FDFB681B685968FB681A680D4B0B408C
:104540005360FB685A6C3B6A1A43FB685A64FB6809
:10455000202283F84120FB68002283F84220FB6878
:10456000002283F8402097F8273018462837BD46A8
:1045700080BD00BF00E800FE80B487B000AFF860E7
:104580007B600B467B8113467B727B89C3F30902F8
:104590007B7A1B0403F47F031A437B681A433B6A4C
:1045A000134323F000437B61FB681B685A683B6A36
:1045B0005B0D03F48061084B0B43DB4302EA03010C
:1045C000FB681B687A690A435A6000BF1C37BD4606
:1045D0005DF8047B704700BFFF63FF0380B483B0C6
:1045E00000AF786039607B6893F84130DBB2202BF4
:1045F00038D17B6893F84030012B01D1022332E09F
:104600007B68012283F840207B68242283F84120C4
:104610007B681B681A687B681B6822F001021A60BD
:104620007B681B681A687B681B6822F480521A60DA
:104630007B681B6819687B681B683A680A431A60C4
:104640007B681B681A687B681B6842F001021A606D
:104650007B68202283F841207B68002283F8402079
:10466000002300E0022318460C37BD465DF8047BAA
:10467000704780B485B000AF786039607B6893F88C
:104680004130DBB2202B39D17B6893F84030012BCD
:1046900001D1022333E07B68012283F840207B684C
:1046A000242283F841207B681B681A687B681B689A
:1046B00022F001021A607B681B681B68FB60FB68C4
:1046C00023F47063FB603B681B02FA681343FB60D2
:1046D0007B681B68FA681A607B681B681A687B68CD
:1046E0001B6842F001021A607B68202283F8412097
:1046F0007B68002283F84020002300E00223184654
:104700001437BD465DF8047B7047000080B584B067
:1047100000AF78607B68002B01D10123A2E07B68A9
:104720005B68012B7B6893F83630DBB2002B11D12C
:104730007B68002283F83520786800F08BF97B686D
:104740009B6B002B02D17B68484A9A637B689B6B0A
:10475000786898477B68022283F836207B681B685C
:10476000DB68FB607B685B68012B04D07B689B6A1D
:10477000B3F5000F03D1FB6823F01E03FB607B68D9
:104780005B694FF6FF72934203D0FA68384B1340CF
:10479000FB60FA68374B1340FB607B685A687B68A4
:1047A0009B681A437B681B6A1A437B685B6A1A43DF
:1047B0007B689B6A1343FA681343FB607B685B6802
:1047C000002B07D17B68DA697B681B691343FA68A1
:1047D0001343FB607B685B68012B04D07B689B6A9A
:1047E000B3F5000F07D17B68DA687B681B69134358
:1047F000FA681343FB607B685B694FF6FF72934274
:104800000AD07B685A697B689B691A437B68DB69BD
:104810001343FA681343FB607B681B68FA68DA602D
:104820007B681B68144A934204D07B681B68134A58
:10483000934208D17B68D96A7B681A6B7B681B68D6
:104840000A435A6209E07B681B680D4A934204D10F
:104850007B681B687A68D26A5A627B68012283F897
:104860003620002318461037BD4680BD7915000854
:104870003F1FFFFFFEF119FF0024004000240058F5
:104880000028005880B582B000AF78607B681B6854
:104890001B6803F00103012B0ED17B681B689B682A
:1048A00003F00103012B07D17B681B6801225A60CA
:1048B0007B681B6C786898477B681B681B6803F0F3
:1048C0000203022B0ED17B681B689B6803F0020376
:1048D000022B07D17B681B6802225A607B685B6CE5
:1048E000786898477B681B681B6803F00403042BF7
:1048F0000ED17B681B689B6803F00403042B07D16F
:104900007B681B6804225A607B689B6C78689847B8
:104910007B681B681B6803F00803082B0ED17B68BB
:104920001B689B6803F00803082B07D17B681B6892
:1049300008225A607B68DB6C786898477B681B6844
:104940001B6803F01003102B0ED17B681B689B685B
:1049500003F01003102B07D17B681B6810225A60EC
:104960007B681B6D786898477B681B681B6803F041
:104970002003202B0ED17B681B689B6803F020036B
:10498000202B07D17B681B6820225A607B685B6DF7
:10499000786898477B681B681B6803F04003402BCE
:1049A0000ED17B681B689B6803F04003402B07D146
:1049B0007B681B6840225A607B689B6D78689847CB
:1049C00000BF0837BD4680BD80B483B000AF7860BB
:1049D00000BF0C37BD465DF8047B704780B483B0E0
:1049E00000AF786000BF0C37BD465DF8047B7047B0
:1049F00080B483B000AF786000BF0C37BD465DF86F
:104A0000047B704780B483B000AF786000BF0C3780
:104A1000BD465DF8047B704780B483B000AF78601A
:104A200000BF0C37BD465DF8047B704780B483B08F
:104A300000AF786000BF0C37BD465DF8047B70475F
:104A400080B483B000AF786000BF0C37BD465DF81E
:104A5000047B704780B483B000AF78607B680D4AF8
:104A60001A647B680C4A5A647B680C4A9A647B68B7
:104A70000B4ADA647B680B4A1A657B680A4A5A65F6
:104A80007B680A4A9A6500BF0C37BD465DF8047B17
:104A9000704700BFC9490008DD490008F149000816
:104AA000054A0008194A00082D4A0008414A000832
:104AB000F0B58FB00AAF78607B68002B01D101237D
:104AC00016E17B681B68BB607B6893F8BD34DBB282
:104AD000002B06D17B68002283F8BC247868FCF7A1
:104AE000B9FE7B68032283F8BD24BB68DB6B03F44B
:104AF0008073002B02D17B680022DA607B681B6820
:104B0000184606F039FA7B681B683B607E686D4684
:104B100006F110040FCC0FC50FCC0FC594E80300AD
:104B200085E80300331D0ECB386806F0B7F903465D
:104B3000002B05D07B68022283F8BD240123D7E037
:104B40007B681B680021184606F027FA0023FB73D8
:104B50004AE0FA7B79681346DB0013449B000B4460
:104B60003D3301221A70FA7B79681346DB00134447
:104B70009B000B443C33FA7B1A70FA7BFB7B98B2A8
:104B800079681346DB0013449B000B4456330246FE
:104B90001A80FA7B79681346DB0013449B000B44B0
:104BA000403300221A70FA7B79681346DB00134405
:104BB0009B000B44443300221A60FA7B7968134649
:104BC000DB0013449B000B44483300221A60FA7B3D
:104BD00079681346DB0013449B000B444C330022DE
:104BE0001A60FB7B0133FB73FA7B7B685B689A423C
:104BF000AFD30023FB7344E0FA7B79681346DB00F4
:104C000013449B000B4403F27D2300221A70FA7BAD
:104C100079681346DB0013449B000B4403F51F73B4
:104C2000FA7B1A70FA7B79681346DB0013449B0009
:104C30000B4403F5207300221A70FA7B796813463F
:104C4000DB0013449B000B4403F5217300221A6020
:104C5000FA7B79681346DB0013449B000B4403F591
:104C6000227300221A60FA7B79681346DB00134432
:104C70009B000B4403F5237300221A60FB7B013376
:104C8000FB73FA7B7B685B689A42B5D37B681B68D1
:104C90003B607E686D4606F110040FCC0FC50FCC4B
:104CA0000FC594E8030085E80300331D0ECB386878
:104CB00006F0C0F90346002B05D07B68022283F87A
:104CC000BD24012314E07B68002283F838207B6830
:104CD000012283F8BD247B685B6A012B02D17868CE
:104CE00000F00AF87B681B68184606F07EFB00237C
:104CF00018461437BD46F0BD80B485B000AF78606B
:104D00007B681B68FB607B680122C3F800257B6819
:104D1000002283F8F424FB689B6943F00062FB687F
:104D20009A61FB685A6D054B1343FA68536500237B
:104D300018461437BD465DF8047B70470300001029
:104D400080B400AF054B1B68044A43F480731360C2
:104D500000BFBD465DF8047B704700BF00480258A5
:104D600080B584B000AF7860294BDB6803F007039F
:104D7000062B0AD0264BDB6803F03F037A689A4281
:104D800001D0012340E000233EE0214BDB6823F00B
:104D90003F021F497B681343CB60FDF751FDF8606C
:104DA00009E0FDF74DFD0246FB68D31AB3F57A7FA3
:104DB00001D9012328E0164B5B6803F40053B3F5D7
:104DC000005FEED17B681E2B08D07B682E2B05D0B0
:104DD0007B681D2B02D07B682D2B14D1FDF730FD95
:104DE000F86009E0FDF72CFD0246FB68D31AB3F525
:104DF0007A7F01D9012307E0054BDB6803F4803398
:104E0000B3F5803FEED1002318461037BD4680BD74
:104E10000048025880B400AF054BDB68044A43F0F9
:104E20008073D36000BFBD465DF8047B704700BF50
:104E30000048025880B58CB000AF78607B68002BCA
:104E400002D1012300F048BC7B681B6803F001031A
:104E5000002B00F08880994B1B6903F03803FB623C
:104E6000964B9B6ABB62FB6A102B07D0FB6A182B20
:104E700011D1BB6A03F00303022B0CD18F4B1B68CB
:104E800003F40033002B6DD07B685B68002B69D185
:104E9000012300F021BC7B685B68B3F5803F06D13D
:104EA000864B1B68854A43F4803313602EE07B6891
:104EB0005B68002B0CD1814B1B68804A23F4803344
:104EC00013607E4B1B687D4A23F4802313601DE032
:104ED0007B685B68B3F5A02F0CD1784B1B68774AD1
:104EE00043F480231360754B1B68744A43F480338A
:104EF00013600BE0714B1B68704A23F4803313601E
:104F00006E4B1B686D4A23F4802313607B685B68DB
:104F1000002B13D0FDF794FC786208E0FDF790FCBD
:104F200002467B6AD31A642B01D90323D4E3634B73
:104F30001B6803F40033002BF0D014E0FDF780FC75
:104F4000786208E0FDF77CFC02467B6AD31A642B8A
:104F500001D90323C0E3594B1B6803F40033002B32
:104F6000F0D100E000BF7B681B6803F00203002B58
:104F700000F0CA80514B1B6903F038033B624F4B72
:104F80009B6AFB613B6A002B07D03B6A182B56D10A
:104F9000FB6903F00303002B51D1484B1B6803F05E
:104FA0000403002B05D07B68DB68002B01D10123B3
:104FB00092E3424B1B6823F019027B68DB683F4990
:104FC00013430B60FDF73CFC786208E0FDF738FC0A
:104FD00002467B6AD31A022B01D903237CE3374BA9
:104FE0001B6803F00403002BF0D0FDF759FC0346C7
:104FF00041F20302934217D87B681B69402B08D10A
:105000002E4B5B6823F47C332C4A43F4003353600B
:105010007AE02A4B5B6823F47C327B681B691B03B4
:10502000264913434B606FE0244B5B6823F0FE423C
:105030007B681B691B06214913434B6064E07B6856
:10504000DB68002B47D01D4B1B6823F019027B68DF
:10505000DB681A4913430B60FDF7F2FB786208E046
:10506000FDF7EEFB02467B6AD31A022B01D903231C
:1050700032E3124B1B6803F00403002BF0D0FDF762
:105080000FFC034641F20302934219D87B681B6967
:10509000402B08D1094B5B6823F47C33074A43F467
:1050A0000033536030E0054B5B6823F47C327B684F
:1050B0001B691B03014913434B6025E00044025860
:1050C0009A4B5B6823F0FE427B681B691B0697497D
:1050D00013434B6018E0954B1B68944A23F001037F
:1050E0001360FDF7ADFB786208E0FDF7A9FB02460F
:1050F0007B6AD31A022B01D90323EDE28B4B1B6889
:1051000003F00403002BF0D17B681B6803F010034D
:10511000002B00F0A980854B1B6903F03803BB61AD
:10512000824B9B6A7B61BB69082B07D0BB69182B3C
:105130003AD17B6903F00303012B35D17B4B1B680C
:1051400003F48073002B05D07B68DB69802B01D0D2
:105150000123C1E2FDF7A4FB034641F2030293429F
:1051600017D87B681B6A202B08D1704B5B6823F033
:10517000F8436E4A43F08043536075E06B4B5B68C5
:1051800023F0F8427B681B6A9B06684913434B6017
:105190006AE0664BDB6823F07C527B681B6A1B0667
:1051A00062491343CB605FE07B68DB69002B42D030
:1051B0005E4B1B685D4A43F080031360FDF740FBC4
:1051C000786208E0FDF73CFB02467B6AD31A022BAB
:1051D00001D9032380E2554B1B6803F48073002B35
:1051E000F0D0FDF75DFB034641F20302934217D86E
:1051F0007B681B6A202B08D14C4B5B6823F0F8437B
:105200004A4A43F0804353602EE0484B5B6823F0EA
:10521000F8427B681B6A9B06444913434B6023E0BA
:10522000424BDB6823F07C527B681B6A1B063F49BC
:105230001343CB6018E03D4B1B683C4A23F08003CE
:105240001360FDF7FDFA786208E0FDF7F9FA02460F
:105250007B6AD31A022B01D903233DE2334B1B682F
:1052600003F48073002BF0D17B681B6803F0080304
:10527000002B36D07B685B69002B19D02B4B5B6F02
:105280002A4A43F001035367FDF7DAFA786208E02F
:10529000FDF7D6FA02467B6AD31A022B01D9032303
:1052A0001AE2224B5B6F03F00203002BF0D018E0F0
:1052B0001E4B5B6F1D4A23F001035367FDF7C0FAD5
:1052C000786208E0FDF7BCFA02467B6AD31A022B2B
:1052D00001D9032300E2154B5B6F03F00203002B9F
:1052E000F0D17B681B6803F02003002B39D07B686A
:1052F0009B69002B1CD00D4B1B680C4A43F4805358
:105300001360FDF79DFA786208E0FDF799FA02460E
:105310007B6AD31A022B01D90323DDE1034B1B68FF
:1053200003F40053002BF0D01BE000BF00440258F0
:105330009B4B1B689A4A23F480531360FDF780FA55
:10534000786208E0FDF77CFA02467B6AD31A022BEA
:1053500001D90323C0E1924B1B6803F40053002BD7
:10536000F0D17B681B6803F00403002B00F0818000
:105370008C4B1B688B4A43F480731360FDF760FA13
:10538000786208E0FDF75CFA02467B6AD31A642B68
:1053900001D90323A0E1834B1B6803F48073002B26
:1053A000F0D07B689B68012B06D17D4B1B6F7C4A3C
:1053B00043F0010313672DE07B689B68002B0CD141
:1053C000774B1B6F764A23F001031367744B1B6FF7
:1053D000734A23F0040313671CE07B689B68052B6A
:1053E0000CD16F4B1B6F6E4A43F0040313676C4B79
:1053F0001B6F6B4A43F0010313670BE0684B1B6F95
:10540000674A23F001031367654B1B6F644A23F05F
:10541000040313677B689B68002B15D0FDF710FA17
:1054200078620AE0FDF70CFA02467B6AD31A41F271
:105430008832934201D903234EE1594B1B6F03F08D
:105440000203002BEED014E0FDF7FAF978620AE0CF
:10545000FDF7F6F902467B6AD31A41F2883293428D
:1054600001D9032338E14E4B1B6F03F00203002BDD
:10547000EED17B685B6A002B00F02D81484B1B69E5
:1054800003F03803182B00F0BD807B685B6A022BA9
:1054900040F09E80424B1B68414A23F080731360AA
:1054A000FDF7CEF9786208E0FDF7CAF902467B6A9B
:1054B000D31A022B01D903230EE1394B1B6803F0E9
:1054C0000073002BF0D1364B9A6A374B13407A6841
:1054D000916A7A68D26A12010A43314913438B6296
:1054E0007B681B6B013BC3F308027B685B6B013B72
:1054F0005B029BB21A437B689B6B013B1B0403F46A
:10550000FE031A437B68DB6B013B1B0603F0FE4383
:10551000234913430B63224BDB6A214A23F0010327
:10552000D3621F4B5A6B214B13407A68926CD200A6
:105530001B4913434B631A4BDB6A23F00C027B6855
:105540001B6C17491343CB62154BDB6A23F0020235
:105550007B685B6C12491343CB62114BDB6A104AC8
:1055600043F48033D3620E4BDB6A0D4A43F40033BD
:10557000D3620B4BDB6A0A4A43F48023D362084BA5
:10558000DB6A074A43F00103D362054B1B68044AF8
:1055900043F080731360FDF753F9786211E000BFA8
:1055A00000440258004802580CFCFFFF0700FFFFB0
:1055B000FDF746F902467B6AD31A022B01D9032371
:1055C0008AE0474B1B6803F00073002BF0D082E0A9
:1055D000434B1B68424A23F080731360FDF730F998
:1055E000786208E0FDF72CF902467B6AD31A022B99
:1055F00001D9032370E03A4B1B6803F00073002BC2
:10560000F0D168E0364B9B6A3B61354B1B6BFB600E
:105610007B685B6A012B31D03B6903F003027B6836
:105620009B6A9A422AD13B691B0903F03F027B68BF
:10563000DB6A9A4222D1FB68C3F308027B681B6BCA
:10564000013B9A421AD1FB685B0A03F07F027B6838
:105650005B6B013B9A4211D1FB681B0C03F07F028C
:105660007B689B6B013B9A4208D1FB681B0E03F0E1
:105670007F027B68DB6B013B9A4201D001232BE068
:10568000174B5B6BDB08C3F30C033B617B689B6CC4
:105690003A699A421FD0124BDB6A114A23F0010388
:1056A000D362FDF7CDF8786200BFFDF7C9F8024676
:1056B0007B6A9342F9D00A4B5A6B0A4B13407A68C3
:1056C000926CD200064913434B63054BDB6A044AD4
:1056D00043F00103D362002318463037BD4680BD36
:1056E000004402580700FFFF80B586B000AF786025
:1056F00039607B68002B01D101239CE18A4B1B6838
:1057000003F00F033A689A4210D9874B1B6823F0C5
:105710000F0285493B6813430B60834B1B6803F002
:105720000F033A689A4201D0012384E17B681B6829
:1057300003F00403002B10D07B681A697B4B9B6934
:1057400003F070039A4208D9784B9B6923F07002EA
:105750007B681B69754913438B617B681B6803F089
:105760000803002B10D07B685A69704BDB6903F08B
:1057700070039A4208D96D4BDB6923F070027B6895
:105780005B696A491343CB617B681B6803F01003B4
:10579000002B10D07B689A69644BDB6903F4E063EB
:1057A0009A4208D9614BDB6923F4E0627B689B690C
:1057B0005E491343CB617B681B6803F02003002B19
:1057C00010D07B68DA69594B1B6A03F070039A4268
:1057D00008D9564B1B6A23F070027B68DB6953497A
:1057E00013430B627B681B6803F00203002B10D08D
:1057F0007B68DA684D4B9B6903F00F039A4208D926
:105800004A4B9B6923F00F027B68DB6847491343CF
:105810008B617B681B6803F00103002B55D0434B61
:105820009B6923F470627B689B68404913438B61DA
:105830007B685B68022B07D13C4B1B6803F4003389
:10584000002B21D10123F6E07B685B68032B07D195
:10585000364B1B6803F00073002B15D10123EAE0DF
:105860007B685B68012B07D1304B1B6803F48073A6
:10587000002B09D10123DEE02C4B1B6803F004034D
:10588000002B01D10123D6E0284B1B6923F007022E
:105890007B685B68254913430B61FCF7D1FF786196
:1058A0000AE0FCF7CDFF02467B69D31A41F2883249
:1058B000934201D90323BEE01C4B1B6903F038025D
:1058C0007B685B68DB009A42EBD17B681B6803F066
:1058D0000203002B10D07B68DA68144B9B6903F03D
:1058E0000F039A4208D2114B9B6923F00F027B6889
:1058F000DB680E4913438B610B4B1B6803F00F03EE
:105900003A689A4214D2084B1B6823F00F020649EA
:105910003B6813430B60044B1B6803F00F033A68AA
:105920009A4205D0012386E000200052004402582C
:105930007B681B6803F00403002B10D07B681A6996
:105940003F4B9B6903F070039A4208D23C4B9B6922
:1059500023F070027B681B69394913438B617B68B4
:105960001B6803F00803002B10D07B685A69344B86
:10597000DB6903F070039A4208D2314BDB6923F0F4
:1059800070027B685B692E491343CB617B681B689F
:1059900003F01003002B10D07B689A69284BDB6959
:1059A00003F4E0639A4208D2254BDB6923F4E062FA
:1059B0007B689B6922491343CB617B681B6803F0BA
:1059C0002003002B10D07B68DA691D4B1B6A03F0A3
:1059D00070039A4208D21A4B1B6A23F070027B684C
:1059E000DB69174913430B6200F034F80246144B8D
:1059F0009B691B0A03F00F031249CB5C03F01F03E2
:105A000022FA03F33B610E4B9B6903F00F030D4A2F
:105A1000D35C03F01F033A6922FA03F30A4A1360C6
:105A20000A4A3B6913600A4B1B681846FBF78EFF56
:105A30000346FB73FB7B18461837BD4680BD00BF8D
:105A400000440258B8310508800000247C0000247E
:105A50008400002480B489B000AFB34B1B6903F00D
:105A60003803182B00F2558101A252F823F000BF31
:105A7000D55A0008135D0008135D0008135D000887
:105A8000135D0008135D0008135D0008135D000836
:105A9000FB5A0008135D0008135D0008135D000841
:105AA000135D0008135D0008135D0008135D000816
:105AB000015B0008135D0008135D0008135D00081A
:105AC000135D0008135D0008135D0008135D0008F6
:105AD000075B0008944B1B6803F02003002B09D0E0
